{
  "contractName": "EnsembleLearning",
  "abi": [
    {
      "inputs": [
        {
          "internalType": "address",
          "name": "_rewarder",
          "type": "address"
        },
        {
          "internalType": "address",
          "name": "tokenAddress",
          "type": "address"
        }
      ],
      "stateMutability": "nonpayable",
      "type": "constructor"
    },
    {
      "anonymous": false,
      "inputs": [
        {
          "indexed": true,
          "internalType": "uint256",
          "name": "roundId",
          "type": "uint256"
        },
        {
          "indexed": true,
          "internalType": "address",
          "name": "validator",
          "type": "address"
        },
        {
          "indexed": true,
          "internalType": "address",
          "name": "trainer",
          "type": "address"
        },
        {
          "indexed": false,
          "internalType": "uint256",
          "name": "permille",
          "type": "uint256"
        }
      ],
      "name": "AccuracySubmitted",
      "type": "event"
    },
    {
      "anonymous": false,
      "inputs": [
        {
          "indexed": true,
          "internalType": "uint256",
          "name": "roundId",
          "type": "uint256"
        },
        {
          "indexed": true,
          "internalType": "address",
          "name": "trainer",
          "type": "address"
        },
        {
          "indexed": false,
          "internalType": "string",
          "name": "cid",
          "type": "string"
        }
      ],
      "name": "ModelSubmitted",
      "type": "event"
    },
    {
      "anonymous": false,
      "inputs": [
        {
          "indexed": true,
          "internalType": "address",
          "name": "rewarder",
          "type": "address"
        }
      ],
      "name": "RewarderUpdated",
      "type": "event"
    },
    {
      "anonymous": false,
      "inputs": [
        {
          "indexed": true,
          "internalType": "address",
          "name": "who",
          "type": "address"
        },
        {
          "indexed": false,
          "internalType": "string",
          "name": "role",
          "type": "string"
        },
        {
          "indexed": false,
          "internalType": "bool",
          "name": "enabled",
          "type": "bool"
        }
      ],
      "name": "RoleUpdated",
      "type": "event"
    },
    {
      "anonymous": false,
      "inputs": [
        {
          "indexed": true,
          "internalType": "uint256",
          "name": "roundId",
          "type": "uint256"
        },
        {
          "indexed": false,
          "internalType": "address",
          "name": "malicious",
          "type": "address"
        },
        {
          "indexed": false,
          "internalType": "uint256",
          "name": "maliciousAvgPermille",
          "type": "uint256"
        }
      ],
      "name": "RoundFinalized",
      "type": "event"
    },
    {
      "anonymous": false,
      "inputs": [
        {
          "indexed": true,
          "internalType": "uint256",
          "name": "roundId",
          "type": "uint256"
        }
      ],
      "name": "RoundStarted",
      "type": "event"
    },
    {
      "inputs": [
        {
          "internalType": "uint256",
          "name": "",
          "type": "uint256"
        },
        {
          "internalType": "address",
          "name": "",
          "type": "address"
        },
        {
          "internalType": "address",
          "name": "",
          "type": "address"
        }
      ],
      "name": "accuracy",
      "outputs": [
        {
          "internalType": "uint256",
          "name": "",
          "type": "uint256"
        }
      ],
      "stateMutability": "view",
      "type": "function"
    },
    {
      "inputs": [
        {
          "internalType": "uint256",
          "name": "",
          "type": "uint256"
        },
        {
          "internalType": "address",
          "name": "",
          "type": "address"
        }
      ],
      "name": "countsByTrainer",
      "outputs": [
        {
          "internalType": "uint256",
          "name": "",
          "type": "uint256"
        }
      ],
      "stateMutability": "view",
      "type": "function"
    },
    {
      "inputs": [],
      "name": "currentRoundId",
      "outputs": [
        {
          "internalType": "uint256",
          "name": "",
          "type": "uint256"
        }
      ],
      "stateMutability": "view",
      "type": "function"
    },
    {
      "inputs": [
        {
          "internalType": "address",
          "name": "",
          "type": "address"
        }
      ],
      "name": "isTrainer",
      "outputs": [
        {
          "internalType": "bool",
          "name": "",
          "type": "bool"
        }
      ],
      "stateMutability": "view",
      "type": "function"
    },
    {
      "inputs": [
        {
          "internalType": "address",
          "name": "",
          "type": "address"
        }
      ],
      "name": "isValidator",
      "outputs": [
        {
          "internalType": "bool",
          "name": "",
          "type": "bool"
        }
      ],
      "stateMutability": "view",
      "type": "function"
    },
    {
      "inputs": [
        {
          "internalType": "uint256",
          "name": "",
          "type": "uint256"
        }
      ],
      "name": "maliciousTrainer",
      "outputs": [
        {
          "internalType": "address",
          "name": "",
          "type": "address"
        }
      ],
      "stateMutability": "view",
      "type": "function"
    },
    {
      "inputs": [
        {
          "internalType": "uint256",
          "name": "",
          "type": "uint256"
        },
        {
          "internalType": "address",
          "name": "",
          "type": "address"
        }
      ],
      "name": "modelCid",
      "outputs": [
        {
          "internalType": "string",
          "name": "",
          "type": "string"
        }
      ],
      "stateMutability": "view",
      "type": "function"
    },
    {
      "inputs": [
        {
          "internalType": "uint256",
          "name": "",
          "type": "uint256"
        },
        {
          "internalType": "address",
          "name": "",
          "type": "address"
        }
      ],
      "name": "modelSubmitted",
      "outputs": [
        {
          "internalType": "bool",
          "name": "",
          "type": "bool"
        }
      ],
      "stateMutability": "view",
      "type": "function"
    },
    {
      "inputs": [],
      "name": "owner",
      "outputs": [
        {
          "internalType": "address",
          "name": "",
          "type": "address"
        }
      ],
      "stateMutability": "view",
      "type": "function"
    },
    {
      "inputs": [],
      "name": "rewarder",
      "outputs": [
        {
          "internalType": "address",
          "name": "",
          "type": "address"
        }
      ],
      "stateMutability": "view",
      "type": "function"
    },
    {
      "inputs": [
        {
          "internalType": "uint256",
          "name": "",
          "type": "uint256"
        }
      ],
      "name": "roundActive",
      "outputs": [
        {
          "internalType": "bool",
          "name": "",
          "type": "bool"
        }
      ],
      "stateMutability": "view",
      "type": "function"
    },
    {
      "inputs": [
        {
          "internalType": "uint256",
          "name": "",
          "type": "uint256"
        }
      ],
      "name": "roundFinalized",
      "outputs": [
        {
          "internalType": "bool",
          "name": "",
          "type": "bool"
        }
      ],
      "stateMutability": "view",
      "type": "function"
    },
    {
      "inputs": [
        {
          "internalType": "uint256",
          "name": "",
          "type": "uint256"
        },
        {
          "internalType": "uint256",
          "name": "",
          "type": "uint256"
        }
      ],
      "name": "roundTrainers",
      "outputs": [
        {
          "internalType": "address",
          "name": "",
          "type": "address"
        }
      ],
      "stateMutability": "view",
      "type": "function"
    },
    {
      "inputs": [
        {
          "internalType": "uint256",
          "name": "",
          "type": "uint256"
        },
        {
          "internalType": "uint256",
          "name": "",
          "type": "uint256"
        }
      ],
      "name": "roundValidators",
      "outputs": [
        {
          "internalType": "address",
          "name": "",
          "type": "address"
        }
      ],
      "stateMutability": "view",
      "type": "function"
    },
    {
      "inputs": [
        {
          "internalType": "uint256",
          "name": "",
          "type": "uint256"
        },
        {
          "internalType": "address",
          "name": "",
          "type": "address"
        }
      ],
      "name": "sumAccByTrainer",
      "outputs": [
        {
          "internalType": "uint256",
          "name": "",
          "type": "uint256"
        }
      ],
      "stateMutability": "view",
      "type": "function"
    },
    {
      "inputs": [],
      "name": "token",
      "outputs": [
        {
          "internalType": "contract EnsembleToken",
          "name": "",
          "type": "address"
        }
      ],
      "stateMutability": "view",
      "type": "function"
    },
    {
      "inputs": [],
      "name": "trainerReward",
      "outputs": [
        {
          "internalType": "uint256",
          "name": "",
          "type": "uint256"
        }
      ],
      "stateMutability": "view",
      "type": "function"
    },
    {
      "inputs": [
        {
          "internalType": "uint256",
          "name": "",
          "type": "uint256"
        },
        {
          "internalType": "address",
          "name": "",
          "type": "address"
        },
        {
          "internalType": "address",
          "name": "",
          "type": "address"
        }
      ],
      "name": "validated",
      "outputs": [
        {
          "internalType": "bool",
          "name": "",
          "type": "bool"
        }
      ],
      "stateMutability": "view",
      "type": "function"
    },
    {
      "inputs": [],
      "name": "validatorReward",
      "outputs": [
        {
          "internalType": "uint256",
          "name": "",
          "type": "uint256"
        }
      ],
      "stateMutability": "view",
      "type": "function"
    },
    {
      "inputs": [
        {
          "internalType": "address",
          "name": "_rewarder",
          "type": "address"
        }
      ],
      "name": "setRewarder",
      "outputs": [],
      "stateMutability": "nonpayable",
      "type": "function"
    },
    {
      "inputs": [
        {
          "internalType": "address",
          "name": "who",
          "type": "address"
        },
        {
          "internalType": "bool",
          "name": "enabled",
          "type": "bool"
        }
      ],
      "name": "setTrainer",
      "outputs": [],
      "stateMutability": "nonpayable",
      "type": "function"
    },
    {
      "inputs": [
        {
          "internalType": "address",
          "name": "who",
          "type": "address"
        },
        {
          "internalType": "bool",
          "name": "enabled",
          "type": "bool"
        }
      ],
      "name": "setValidator",
      "outputs": [],
      "stateMutability": "nonpayable",
      "type": "function"
    },
    {
      "inputs": [
        {
          "internalType": "uint256",
          "name": "_trainer",
          "type": "uint256"
        },
        {
          "internalType": "uint256",
          "name": "_validator",
          "type": "uint256"
        }
      ],
      "name": "setRewards",
      "outputs": [],
      "stateMutability": "nonpayable",
      "type": "function"
    },
    {
      "inputs": [
        {
          "internalType": "address[]",
          "name": "trainers",
          "type": "address[]"
        },
        {
          "internalType": "address[]",
          "name": "validators",
          "type": "address[]"
        }
      ],
      "name": "startRound",
      "outputs": [],
      "stateMutability": "nonpayable",
      "type": "function"
    },
    {
      "inputs": [
        {
          "internalType": "uint256",
          "name": "id",
          "type": "uint256"
        },
        {
          "internalType": "string",
          "name": "cid",
          "type": "string"
        }
      ],
      "name": "submitModel",
      "outputs": [],
      "stateMutability": "nonpayable",
      "type": "function"
    },
    {
      "inputs": [
        {
          "internalType": "uint256",
          "name": "id",
          "type": "uint256"
        },
        {
          "internalType": "address",
          "name": "trainer",
          "type": "address"
        },
        {
          "internalType": "uint256",
          "name": "permille",
          "type": "uint256"
        }
      ],
      "name": "submitAccuracy",
      "outputs": [],
      "stateMutability": "nonpayable",
      "type": "function"
    },
    {
      "inputs": [
        {
          "internalType": "uint256",
          "name": "id",
          "type": "uint256"
        },
        {
          "internalType": "address",
          "name": "trainer",
          "type": "address"
        }
      ],
      "name": "averageAccuracy",
      "outputs": [
        {
          "internalType": "bool",
          "name": "hasData",
          "type": "bool"
        },
        {
          "internalType": "uint256",
          "name": "avg",
          "type": "uint256"
        }
      ],
      "stateMutability": "view",
      "type": "function"
    },
    {
      "inputs": [
        {
          "internalType": "uint256",
          "name": "id",
          "type": "uint256"
        }
      ],
      "name": "finalizeRound",
      "outputs": [],
      "stateMutability": "nonpayable",
      "type": "function"
    }
  ],
  "bytecode": "0x6080604052674563918244f40000601155671bc16d674ec8000060125534801562000028575f80fd5b50604051620035663803806200356683398181016040528101906200004e91906200017a565b335f806101000a81548173ffffffffffffffffffffffffffffffffffffffff021916908373ffffffffffffffffffffffffffffffffffffffff1602179055508160015f6101000a81548173ffffffffffffffffffffffffffffffffffffffff021916908373ffffffffffffffffffffffffffffffffffffffff1602179055508060105f6101000a81548173ffffffffffffffffffffffffffffffffffffffff021916908373ffffffffffffffffffffffffffffffffffffffff1602179055505050620001bf565b5f80fd5b5f73ffffffffffffffffffffffffffffffffffffffff82169050919050565b5f620001448262000119565b9050919050565b620001568162000138565b811462000161575f80fd5b50565b5f8151905062000174816200014b565b92915050565b5f806040838503121562000193576200019262000115565b5b5f620001a28582860162000164565b9250506020620001b58582860162000164565b9150509250929050565b61339980620001cd5f395ff3fe608060405234801561000f575f80fd5b50600436106101c2575f3560e01c80638da5cb5b116100f7578063d715106111610095578063ddc7b43b1161006f578063ddc7b43b1461054d578063fa1a808c1461057d578063facd743b146105ad578063fc0c546a146105dd576101c2565b8063d7151061146104e3578063dc283c40146104ff578063dcc3e06e1461052f576101c2565b80639a5777cb116100d15780639a5777cb146104475780639cbe5efd146104655780639fd7835814610483578063c648355f146104b3576101c2565b80638da5cb5b146103dd5780638def5973146103fb57806397002ee114610417576101c2565b80634d1139ae1161016457806363ce975d1161013e57806363ce975d14610343578063654e51e7146103735780636e49e7fb1461038f57806375b94133146103bf576101c2565b80634d1139ae146102c75780634fe0a114146102f757806350beca7814610313576101c2565b806332faf124116101a057806332faf124146102435780633469f6e2146102735780633a6462e41461028f5780634623c91d146102ab576101c2565b80630102ae85146101c657806306eb2f4e146101e25780632eb222b014610213575b5f80fd5b6101e060048036038101906101db919061217b565b6105fb565b005b6101fc60048036038101906101f79190612232565b610892565b60405161020a929190612299565b60405180910390f35b61022d600480360381019061022891906122c0565b61095e565b60405161023a9190612310565b60405180910390f35b61025d60048036038101906102589190612232565b610993565b60405161026a9190612329565b60405180910390f35b61028d60048036038101906102889190612342565b6109b3565b005b6102a960048036038101906102a4919061236d565b6110bf565b005b6102c560048036038101906102c091906123c2565b6111d2565b005b6102e160048036038101906102dc9190612342565b611305565b6040516102ee9190612310565b60405180910390f35b610311600480360381019061030c9190612455565b611322565b005b61032d6004803603810190610328919061236d565b611768565b60405161033a9190612310565b60405180910390f35b61035d600480360381019061035891906124d3565b611785565b60405161036a9190612520565b60405180910390f35b61038d600480360381019061038891906124d3565b6117cd565b005b6103a960048036038101906103a49190612342565b61186c565b6040516103b69190612520565b60405180910390f35b6103c761189c565b6040516103d49190612329565b60405180910390f35b6103e56118a2565b6040516103f29190612520565b60405180910390f35b610415600480360381019061041091906123c2565b6118c5565b005b610431600480360381019061042c91906124d3565b6119f8565b60405161043e9190612520565b60405180910390f35b61044f611a40565b60405161045c9190612329565b60405180910390f35b61046d611a46565b60405161047a9190612329565b60405180910390f35b61049d600480360381019061049891906122c0565b611a4c565b6040516104aa9190612329565b60405180910390f35b6104cd60048036038101906104c89190612232565b611a77565b6040516104da9190612310565b60405180910390f35b6104fd60048036038101906104f89190612539565b611aa1565b005b61051960048036038101906105149190612232565b611f95565b6040516105269190612613565b60405180910390f35b61053761203b565b6040516105449190612520565b60405180910390f35b61056760048036038101906105629190612342565b612060565b6040516105749190612310565b60405180910390f35b61059760048036038101906105929190612232565b61207d565b6040516105a49190612329565b60405180910390f35b6105c760048036038101906105c2919061236d565b61209d565b6040516105d49190612310565b60405180910390f35b6105e56120ba565b6040516105f2919061268e565b60405180910390f35b8260055f8281526020019081526020015f205f9054906101000a900460ff16610659576040517f08c379a0000000000000000000000000000000000000000000000000000000008152600401610650906126f1565b60405180910390fd5b60025f3373ffffffffffffffffffffffffffffffffffffffff1673ffffffffffffffffffffffffffffffffffffffff1681526020019081526020015f205f9054906101000a900460ff166106e2576040517f08c379a00000000000000000000000000000000000000000000000000000000081526004016106d990612759565b60405180910390fd5b60095f8581526020019081526020015f205f3373ffffffffffffffffffffffffffffffffffffffff1673ffffffffffffffffffffffffffffffffffffffff1681526020019081526020015f205f9054906101000a900460ff161561077b576040517f08c379a0000000000000000000000000000000000000000000000000000000008152600401610772906127c1565b60405180910390fd5b600160095f8681526020019081526020015f205f3373ffffffffffffffffffffffffffffffffffffffff1673ffffffffffffffffffffffffffffffffffffffff1681526020019081526020015f205f6101000a81548160ff021916908315150217905550828260085f8781526020019081526020015f205f3373ffffffffffffffffffffffffffffffffffffffff1673ffffffffffffffffffffffffffffffffffffffff1681526020019081526020015f20918261083a929190612a07565b503373ffffffffffffffffffffffffffffffffffffffff16847f9d222ed2b73a1858a94311576b5ad3188404d49a191f5f9313f93d5050e1224f8585604051610884929190612b0e565b60405180910390a350505050565b5f805f600c5f8681526020019081526020015f205f8573ffffffffffffffffffffffffffffffffffffffff1673ffffffffffffffffffffffffffffffffffffffff1681526020019081526020015f205490505f81036108f7575f809250925050610957565b600181600d5f8881526020019081526020015f205f8773ffffffffffffffffffffffffffffffffffffffff1673ffffffffffffffffffffffffffffffffffffffff1681526020019081526020015f20546109519190612b8a565b92509250505b9250929050565b600b602052825f5260405f20602052815f5260405f20602052805f5260405f205f92509250509054906101000a900460ff1681565b600d602052815f5260405f20602052805f5260405f205f91509150505481565b60015f9054906101000a900473ffffffffffffffffffffffffffffffffffffffff1673ffffffffffffffffffffffffffffffffffffffff163373ffffffffffffffffffffffffffffffffffffffff1614610a42576040517f08c379a0000000000000000000000000000000000000000000000000000000008152600401610a3990612c04565b60405180910390fd5b8060055f8281526020019081526020015f205f9054906101000a900460ff16610aa0576040517f08c379a0000000000000000000000000000000000000000000000000000000008152600401610a97906126f1565b60405180910390fd5b600f5f8381526020019081526020015f205f9054906101000a900460ff1615610afe576040517f08c379a0000000000000000000000000000000000000000000000000000000008152600401610af590612c6c565b60405180910390fd5b5f60065f8481526020019081526020015f20805480602002602001604051908101604052809291908181526020018280548015610b8d57602002820191905f5260205f20905b815f9054906101000a900473ffffffffffffffffffffffffffffffffffffffff1673ffffffffffffffffffffffffffffffffffffffff1681526020019060010190808311610b44575b505050505090505f815111610bd7576040517f08c379a0000000000000000000000000000000000000000000000000000000008152600401610bce90612cd4565b60405180910390fd5b5f815f81518110610beb57610bea612cf2565b5b602002602001015190505f7fffffffffffffffffffffffffffffffffffffffffffffffffffffffffffffffff90505f5b8351811015610ccc575f80610c4a88878581518110610c3d57610c3c612cf2565b5b6020026020010151610892565b9150915081610c8e576040517f08c379a0000000000000000000000000000000000000000000000000000000008152600401610c8590612d69565b60405180910390fd5b83811015610cb757809350858381518110610cac57610cab612cf2565b5b602002602001015194505b50508080610cc490612d87565b915050610c1b565b5081600e5f8781526020019081526020015f205f6101000a81548173ffffffffffffffffffffffffffffffffffffffff021916908373ffffffffffffffffffffffffffffffffffffffff1602179055506001600f5f8781526020019081526020015f205f6101000a81548160ff0219169083151502179055505f60055f8781526020019081526020015f205f6101000a81548160ff0219169083151502179055505f5b8351811015610ed0578273ffffffffffffffffffffffffffffffffffffffff16848281518110610da257610da1612cf2565b5b602002602001015173ffffffffffffffffffffffffffffffffffffffff1614610ebd5760105f9054906101000a900473ffffffffffffffffffffffffffffffffffffffff1673ffffffffffffffffffffffffffffffffffffffff1663a9059cbb858381518110610e1557610e14612cf2565b5b60200260200101516011546040518363ffffffff1660e01b8152600401610e3d929190612dce565b6020604051808303815f875af1158015610e59573d5f803e3d5ffd5b505050506040513d601f19601f82011682018060405250810190610e7d9190612e09565b610ebc576040517f08c379a0000000000000000000000000000000000000000000000000000000008152600401610eb390612e7e565b60405180910390fd5b5b8080610ec890612d87565b915050610d6f565b505f60075f8781526020019081526020015f20805480602002602001604051908101604052809291908181526020018280548015610f6057602002820191905f5260205f20905b815f9054906101000a900473ffffffffffffffffffffffffffffffffffffffff1673ffffffffffffffffffffffffffffffffffffffff1681526020019060010190808311610f17575b505050505090505f5b815181101561107c5760105f9054906101000a900473ffffffffffffffffffffffffffffffffffffffff1673ffffffffffffffffffffffffffffffffffffffff1663a9059cbb838381518110610fc257610fc1612cf2565b5b60200260200101516012546040518363ffffffff1660e01b8152600401610fea929190612dce565b6020604051808303815f875af1158015611006573d5f803e3d5ffd5b505050506040513d601f19601f8201168201806040525081019061102a9190612e09565b611069576040517f08c379a000000000000000000000000000000000000000000000000000000000815260040161106090612ee6565b60405180910390fd5b808061107490612d87565b915050610f69565b50857f8d77f26f27e7ae0d96df68d7333d36df3293a2ca2206d7c03f3c82d80f69440884846040516110af929190612dce565b60405180910390a2505050505050565b5f8054906101000a900473ffffffffffffffffffffffffffffffffffffffff1673ffffffffffffffffffffffffffffffffffffffff163373ffffffffffffffffffffffffffffffffffffffff161461114c576040517f08c379a000000000000000000000000000000000000000000000000000000000815260040161114390612f4e565b60405180910390fd5b8060015f6101000a81548173ffffffffffffffffffffffffffffffffffffffff021916908373ffffffffffffffffffffffffffffffffffffffff1602179055508073ffffffffffffffffffffffffffffffffffffffff167f47c9042c3be42a955f60f9b75006522826af1a3bed83e26646997d3bcccda77c60405160405180910390a250565b5f8054906101000a900473ffffffffffffffffffffffffffffffffffffffff1673ffffffffffffffffffffffffffffffffffffffff163373ffffffffffffffffffffffffffffffffffffffff161461125f576040517f08c379a000000000000000000000000000000000000000000000000000000000815260040161125690612f4e565b60405180910390fd5b8060035f8473ffffffffffffffffffffffffffffffffffffffff1673ffffffffffffffffffffffffffffffffffffffff1681526020019081526020015f205f6101000a81548160ff0219169083151502179055508173ffffffffffffffffffffffffffffffffffffffff167fc4d12f4fed3c7d8e40b10b954dc4b19c26000388e17fd31b4af750dd33b41664826040516112f99190612fb6565b60405180910390a25050565b600f602052805f5260405f205f915054906101000a900460ff1681565b60015f9054906101000a900473ffffffffffffffffffffffffffffffffffffffff1673ffffffffffffffffffffffffffffffffffffffff163373ffffffffffffffffffffffffffffffffffffffff16146113b1576040517f08c379a00000000000000000000000000000000000000000000000000000000081526004016113a890612c04565b60405180910390fd5b60055f60016004546113c39190612fe2565b81526020019081526020015f205f9054906101000a900460ff161561141d576040517f08c379a00000000000000000000000000000000000000000000000000000000081526004016114149061305f565b60405180910390fd5b600160045f82825461142f9190612fe2565b92505081905550600160055f60045481526020019081526020015f205f6101000a81548160ff0219169083151502179055505f5b848490508110156115c95760025f86868481811061148457611483612cf2565b5b9050602002016020810190611499919061236d565b73ffffffffffffffffffffffffffffffffffffffff1673ffffffffffffffffffffffffffffffffffffffff1681526020019081526020015f205f9054906101000a900460ff1661151e576040517f08c379a0000000000000000000000000000000000000000000000000000000008152600401611515906130c7565b60405180910390fd5b60065f60045481526020019081526020015f2085858381811061154457611543612cf2565b5b9050602002016020810190611559919061236d565b908060018154018082558091505060019003905f5260205f20015f9091909190916101000a81548173ffffffffffffffffffffffffffffffffffffffff021916908373ffffffffffffffffffffffffffffffffffffffff16021790555080806115c190612d87565b915050611463565b505f5b828290508110156117325760035f8484848181106115ed576115ec612cf2565b5b9050602002016020810190611602919061236d565b73ffffffffffffffffffffffffffffffffffffffff1673ffffffffffffffffffffffffffffffffffffffff1681526020019081526020015f205f9054906101000a900460ff16611687576040517f08c379a000000000000000000000000000000000000000000000000000000000815260040161167e9061312f565b60405180910390fd5b60075f60045481526020019081526020015f208383838181106116ad576116ac612cf2565b5b90506020020160208101906116c2919061236d565b908060018154018082558091505060019003905f5260205f20015f9091909190916101000a81548173ffffffffffffffffffffffffffffffffffffffff021916908373ffffffffffffffffffffffffffffffffffffffff160217905550808061172a90612d87565b9150506115cc565b506004547f33a701182892fd888ed152ca2ac23771a32e814469b7cd255965471e1af3a65960405160405180910390a250505050565b6002602052805f5260405f205f915054906101000a900460ff1681565b6006602052815f5260405f20818154811061179e575f80fd5b905f5260205f20015f915091509054906101000a900473ffffffffffffffffffffffffffffffffffffffff1681565b5f8054906101000a900473ffffffffffffffffffffffffffffffffffffffff1673ffffffffffffffffffffffffffffffffffffffff163373ffffffffffffffffffffffffffffffffffffffff161461185a576040517f08c379a000000000000000000000000000000000000000000000000000000000815260040161185190612f4e565b60405180910390fd5b81601181905550806012819055505050565b600e602052805f5260405f205f915054906101000a900473ffffffffffffffffffffffffffffffffffffffff1681565b60125481565b5f8054906101000a900473ffffffffffffffffffffffffffffffffffffffff1681565b5f8054906101000a900473ffffffffffffffffffffffffffffffffffffffff1673ffffffffffffffffffffffffffffffffffffffff163373ffffffffffffffffffffffffffffffffffffffff1614611952576040517f08c379a000000000000000000000000000000000000000000000000000000000815260040161194990612f4e565b60405180910390fd5b8060025f8473ffffffffffffffffffffffffffffffffffffffff1673ffffffffffffffffffffffffffffffffffffffff1681526020019081526020015f205f6101000a81548160ff0219169083151502179055508173ffffffffffffffffffffffffffffffffffffffff167fc4d12f4fed3c7d8e40b10b954dc4b19c26000388e17fd31b4af750dd33b41664826040516119ec9190613197565b60405180910390a25050565b6007602052815f5260405f208181548110611a11575f80fd5b905f5260205f20015f915091509054906101000a900473ffffffffffffffffffffffffffffffffffffffff1681565b60115481565b60045481565b600a602052825f5260405f20602052815f5260405f20602052805f5260405f205f9250925050505481565b6009602052815f5260405f20602052805f5260405f205f915091509054906101000a900460ff1681565b8260055f8281526020019081526020015f205f9054906101000a900460ff16611aff576040517f08c379a0000000000000000000000000000000000000000000000000000000008152600401611af6906126f1565b60405180910390fd5b60035f3373ffffffffffffffffffffffffffffffffffffffff1673ffffffffffffffffffffffffffffffffffffffff1681526020019081526020015f205f9054906101000a900460ff16611b88576040517f08c379a0000000000000000000000000000000000000000000000000000000008152600401611b7f9061320d565b60405180910390fd5b60095f8581526020019081526020015f205f8473ffffffffffffffffffffffffffffffffffffffff1673ffffffffffffffffffffffffffffffffffffffff1681526020019081526020015f205f9054906101000a900460ff16611c20576040517f08c379a0000000000000000000000000000000000000000000000000000000008152600401611c1790613275565b60405180910390fd5b600b5f8581526020019081526020015f205f3373ffffffffffffffffffffffffffffffffffffffff1673ffffffffffffffffffffffffffffffffffffffff1681526020019081526020015f205f8473ffffffffffffffffffffffffffffffffffffffff1673ffffffffffffffffffffffffffffffffffffffff1681526020019081526020015f205f9054906101000a900460ff1615611cf4576040517f08c379a0000000000000000000000000000000000000000000000000000000008152600401611ceb906132dd565b60405180910390fd5b6103e8821115611d39576040517f08c379a0000000000000000000000000000000000000000000000000000000008152600401611d3090613345565b60405180910390fd5b6001600b5f8681526020019081526020015f205f3373ffffffffffffffffffffffffffffffffffffffff1673ffffffffffffffffffffffffffffffffffffffff1681526020019081526020015f205f8573ffffffffffffffffffffffffffffffffffffffff1673ffffffffffffffffffffffffffffffffffffffff1681526020019081526020015f205f6101000a81548160ff02191690831515021790555081600a5f8681526020019081526020015f205f3373ffffffffffffffffffffffffffffffffffffffff1673ffffffffffffffffffffffffffffffffffffffff1681526020019081526020015f205f8573ffffffffffffffffffffffffffffffffffffffff1673ffffffffffffffffffffffffffffffffffffffff1681526020019081526020015f20819055506001600c5f8681526020019081526020015f205f8573ffffffffffffffffffffffffffffffffffffffff1673ffffffffffffffffffffffffffffffffffffffff1681526020019081526020015f205f828254611ec09190612fe2565b9250508190555081600d5f8681526020019081526020015f205f8573ffffffffffffffffffffffffffffffffffffffff1673ffffffffffffffffffffffffffffffffffffffff1681526020019081526020015f205f828254611f229190612fe2565b925050819055508273ffffffffffffffffffffffffffffffffffffffff163373ffffffffffffffffffffffffffffffffffffffff16857f2f1635a4366ab447a010f578321de9fd960facf62b7509ff0d065cf8b8b7538685604051611f879190612329565b60405180910390a450505050565b6008602052815f5260405f20602052805f5260405f205f91509150508054611fbc90612843565b80601f0160208091040260200160405190810160405280929190818152602001828054611fe890612843565b80156120335780601f1061200a57610100808354040283529160200191612033565b820191905f5260205f20905b81548152906001019060200180831161201657829003601f168201915b505050505081565b60015f9054906101000a900473ffffffffffffffffffffffffffffffffffffffff1681565b6005602052805f5260405f205f915054906101000a900460ff1681565b600c602052815f5260405f20602052805f5260405f205f91509150505481565b6003602052805f5260405f205f915054906101000a900460ff1681565b60105f9054906101000a900473ffffffffffffffffffffffffffffffffffffffff1681565b5f80fd5b5f80fd5b5f819050919050565b6120f9816120e7565b8114612103575f80fd5b50565b5f81359050612114816120f0565b92915050565b5f80fd5b5f80fd5b5f80fd5b5f8083601f84011261213b5761213a61211a565b5b8235905067ffffffffffffffff8111156121585761215761211e565b5b60208301915083600182028301111561217457612173612122565b5b9250929050565b5f805f60408486031215612192576121916120df565b5b5f61219f86828701612106565b935050602084013567ffffffffffffffff8111156121c0576121bf6120e3565b5b6121cc86828701612126565b92509250509250925092565b5f73ffffffffffffffffffffffffffffffffffffffff82169050919050565b5f612201826121d8565b9050919050565b612211816121f7565b811461221b575f80fd5b50565b5f8135905061222c81612208565b92915050565b5f8060408385031215612248576122476120df565b5b5f61225585828601612106565b92505060206122668582860161221e565b9150509250929050565b5f8115159050919050565b61228481612270565b82525050565b612293816120e7565b82525050565b5f6040820190506122ac5f83018561227b565b6122b9602083018461228a565b9392505050565b5f805f606084860312156122d7576122d66120df565b5b5f6122e486828701612106565b93505060206122f58682870161221e565b92505060406123068682870161221e565b9150509250925092565b5f6020820190506123235f83018461227b565b92915050565b5f60208201905061233c5f83018461228a565b92915050565b5f60208284031215612357576123566120df565b5b5f61236484828501612106565b91505092915050565b5f60208284031215612382576123816120df565b5b5f61238f8482850161221e565b91505092915050565b6123a181612270565b81146123ab575f80fd5b50565b5f813590506123bc81612398565b92915050565b5f80604083850312156123d8576123d76120df565b5b5f6123e58582860161221e565b92505060206123f6858286016123ae565b9150509250929050565b5f8083601f8401126124155761241461211a565b5b8235905067ffffffffffffffff8111156124325761243161211e565b5b60208301915083602082028301111561244e5761244d612122565b5b9250929050565b5f805f806040858703121561246d5761246c6120df565b5b5f85013567ffffffffffffffff81111561248a576124896120e3565b5b61249687828801612400565b9450945050602085013567ffffffffffffffff8111156124b9576124b86120e3565b5b6124c587828801612400565b925092505092959194509250565b5f80604083850312156124e9576124e86120df565b5b5f6124f685828601612106565b925050602061250785828601612106565b9150509250929050565b61251a816121f7565b82525050565b5f6020820190506125335f830184612511565b92915050565b5f805f606084860312156125505761254f6120df565b5b5f61255d86828701612106565b935050602061256e8682870161221e565b925050604061257f86828701612106565b9150509250925092565b5f81519050919050565b5f82825260208201905092915050565b5f5b838110156125c05780820151818401526020810190506125a5565b5f8484015250505050565b5f601f19601f8301169050919050565b5f6125e582612589565b6125ef8185612593565b93506125ff8185602086016125a3565b612608816125cb565b840191505092915050565b5f6020820190508181035f83015261262b81846125db565b905092915050565b5f819050919050565b5f61265661265161264c846121d8565b612633565b6121d8565b9050919050565b5f6126678261263c565b9050919050565b5f6126788261265d565b9050919050565b6126888161266e565b82525050565b5f6020820190506126a15f83018461267f565b92915050565b7f726f756e64206e6f7420616374697665000000000000000000000000000000005f82015250565b5f6126db601083612593565b91506126e6826126a7565b602082019050919050565b5f6020820190508181035f830152612708816126cf565b9050919050565b7f6e6f7420747261696e65720000000000000000000000000000000000000000005f82015250565b5f612743600b83612593565b915061274e8261270f565b602082019050919050565b5f6020820190508181035f83015261277081612737565b9050919050565b7f616c7265616479207375626d69747465640000000000000000000000000000005f82015250565b5f6127ab601183612593565b91506127b682612777565b602082019050919050565b5f6020820190508181035f8301526127d88161279f565b9050919050565b5f82905092915050565b7f4e487b71000000000000000000000000000000000000000000000000000000005f52604160045260245ffd5b7f4e487b71000000000000000000000000000000000000000000000000000000005f52602260045260245ffd5b5f600282049050600182168061285a57607f821691505b60208210810361286d5761286c612816565b5b50919050565b5f819050815f5260205f209050919050565b5f6020601f8301049050919050565b5f82821b905092915050565b5f600883026128cf7fffffffffffffffffffffffffffffffffffffffffffffffffffffffffffffffff82612894565b6128d98683612894565b95508019841693508086168417925050509392505050565b5f61290b612906612901846120e7565b612633565b6120e7565b9050919050565b5f819050919050565b612924836128f1565b61293861293082612912565b8484546128a0565b825550505050565b5f90565b61294c612940565b61295781848461291b565b505050565b5b8181101561297a5761296f5f82612944565b60018101905061295d565b5050565b601f8211156129bf5761299081612873565b61299984612885565b810160208510156129a8578190505b6129bc6129b485612885565b83018261295c565b50505b505050565b5f82821c905092915050565b5f6129df5f19846008026129c4565b1980831691505092915050565b5f6129f783836129d0565b9150826002028217905092915050565b612a1183836127df565b67ffffffffffffffff811115612a2a57612a296127e9565b5b612a348254612843565b612a3f82828561297e565b5f601f831160018114612a6c575f8415612a5a578287013590505b612a6485826129ec565b865550612acb565b601f198416612a7a86612873565b5f5b82811015612aa157848901358255600182019150602085019450602081019050612a7c565b86831015612abe5784890135612aba601f8916826129d0565b8355505b6001600288020188555050505b50505050505050565b828183375f83830152505050565b5f612aed8385612593565b9350612afa838584612ad4565b612b03836125cb565b840190509392505050565b5f6020820190508181035f830152612b27818486612ae2565b90509392505050565b7f4e487b71000000000000000000000000000000000000000000000000000000005f52601260045260245ffd5b7f4e487b71000000000000000000000000000000000000000000000000000000005f52601160045260245ffd5b5f612b94826120e7565b9150612b9f836120e7565b925082612baf57612bae612b30565b5b828204905092915050565b7f6e6f7420726577617264657200000000000000000000000000000000000000005f82015250565b5f612bee600c83612593565b9150612bf982612bba565b602082019050919050565b5f6020820190508181035f830152612c1b81612be2565b9050919050565b7f616c72656164792066696e616c697a65640000000000000000000000000000005f82015250565b5f612c56601183612593565b9150612c6182612c22565b602082019050919050565b5f6020820190508181035f830152612c8381612c4a565b9050919050565b7f6e6f20747261696e6572730000000000000000000000000000000000000000005f82015250565b5f612cbe600b83612593565b9150612cc982612c8a565b602082019050919050565b5f6020820190508181035f830152612ceb81612cb2565b9050919050565b7f4e487b71000000000000000000000000000000000000000000000000000000005f52603260045260245ffd5b7f6d697373696e67206163637572616379000000000000000000000000000000005f82015250565b5f612d53601083612593565b9150612d5e82612d1f565b602082019050919050565b5f6020820190508181035f830152612d8081612d47565b9050919050565b5f612d91826120e7565b91507fffffffffffffffffffffffffffffffffffffffffffffffffffffffffffffffff8203612dc357612dc2612b5d565b5b600182019050919050565b5f604082019050612de15f830185612511565b612dee602083018461228a565b9392505050565b5f81519050612e0381612398565b92915050565b5f60208284031215612e1e57612e1d6120df565b5b5f612e2b84828501612df5565b91505092915050565b7f747261696e657220726577617264206661696c656400000000000000000000005f82015250565b5f612e68601583612593565b9150612e7382612e34565b602082019050919050565b5f6020820190508181035f830152612e9581612e5c565b9050919050565b7f76616c696461746f7220726577617264206661696c65640000000000000000005f82015250565b5f612ed0601783612593565b9150612edb82612e9c565b602082019050919050565b5f6020820190508181035f830152612efd81612ec4565b9050919050565b7f6e6f74206f776e657200000000000000000000000000000000000000000000005f82015250565b5f612f38600983612593565b9150612f4382612f04565b602082019050919050565b5f6020820190508181035f830152612f6581612f2c565b9050919050565b7f76616c696461746f7200000000000000000000000000000000000000000000005f82015250565b5f612fa0600983612593565b9150612fab82612f6c565b602082019050919050565b5f6040820190508181035f830152612fcd81612f94565b9050612fdc602083018461227b565b92915050565b5f612fec826120e7565b9150612ff7836120e7565b925082820190508082111561300f5761300e612b5d565b5b92915050565b7f6e65787420726f756e6420616c726561647920616374697665000000000000005f82015250565b5f613049601983612593565b915061305482613015565b602082019050919050565b5f6020820190508181035f8301526130768161303d565b9050919050565b7f756e6b6e6f776e20747261696e657200000000000000000000000000000000005f82015250565b5f6130b1600f83612593565b91506130bc8261307d565b602082019050919050565b5f6020820190508181035f8301526130de816130a5565b9050919050565b7f756e6b6e6f776e2076616c696461746f720000000000000000000000000000005f82015250565b5f613119601183612593565b9150613124826130e5565b602082019050919050565b5f6020820190508181035f8301526131468161310d565b9050919050565b7f747261696e6572000000000000000000000000000000000000000000000000005f82015250565b5f613181600783612593565b915061318c8261314d565b602082019050919050565b5f6040820190508181035f8301526131ae81613175565b90506131bd602083018461227b565b92915050565b7f6e6f742076616c696461746f72000000000000000000000000000000000000005f82015250565b5f6131f7600d83612593565b9150613202826131c3565b602082019050919050565b5f6020820190508181035f830152613224816131eb565b9050919050565b7f6e6f206d6f64656c0000000000000000000000000000000000000000000000005f82015250565b5f61325f600883612593565b915061326a8261322b565b602082019050919050565b5f6020820190508181035f83015261328c81613253565b9050919050565b7f616c72656164792076616c6964617465640000000000000000000000000000005f82015250565b5f6132c7601183612593565b91506132d282613293565b602082019050919050565b5f6020820190508181035f8301526132f4816132bb565b9050919050565b7f7065726d696c6c653e31303030000000000000000000000000000000000000005f82015250565b5f61332f600d83612593565b915061333a826132fb565b602082019050919050565b5f6020820190508181035f83015261335c81613323565b905091905056fea2646970667358221220e30b5b11608daadf75459ea092c965c7a5e35167c3b85c3cf9d9d257f64ffd8964736f6c63430008140033",
  "immutableReferences": {},
  "source": "// SPDX-License-Identifier: MIT\npragma solidity ^0.8.20;\n\nimport \"./EnsembleToken.sol\";\n\n/**\n * @title EnsembleLearning\n * @dev Decentralized ensemble-learning coordination contract using ERC-20 token rewards\n */\ncontract EnsembleLearning {\n    // ---------------------------------------------------------------------\n    // Roles & state\n    // ---------------------------------------------------------------------\n    address public owner;\n    address public rewarder;\n\n    mapping(address => bool) public isTrainer;\n    mapping(address => bool) public isValidator;\n\n    uint256 public currentRoundId;\n    mapping(uint256 => bool) public roundActive;\n\n    mapping(uint256 => address[]) public roundTrainers;\n    mapping(uint256 => address[]) public roundValidators;\n\n    mapping(uint256 => mapping(address => string)) public modelCid;\n    mapping(uint256 => mapping(address => bool)) public modelSubmitted;\n\n    mapping(uint256 => mapping(address => mapping(address => uint256))) public accuracy; // roundvalidatortrainerpermille\n    mapping(uint256 => mapping(address => mapping(address => bool))) public validated;\n\n    mapping(uint256 => mapping(address => uint256)) public countsByTrainer;\n    mapping(uint256 => mapping(address => uint256)) public sumAccByTrainer;\n\n    mapping(uint256 => address) public maliciousTrainer;\n    mapping(uint256 => bool) public roundFinalized;\n\n    // ---------------------------------------------------------------------\n    // Token economy\n    // ---------------------------------------------------------------------\n    EnsembleToken public token;\n    uint256 public trainerReward = 5 * 10 ** 18;    // 5 ERT per trainer\n    uint256 public validatorReward = 2 * 10 ** 18;  // 2 ERT per validator\n\n    // ---------------------------------------------------------------------\n    // Events\n    // ---------------------------------------------------------------------\n    event RoleUpdated(address indexed who, string role, bool enabled);\n    event RewarderUpdated(address indexed rewarder);\n    event RoundStarted(uint256 indexed roundId);\n    event ModelSubmitted(uint256 indexed roundId, address indexed trainer, string cid);\n    event AccuracySubmitted(uint256 indexed roundId, address indexed validator, address indexed trainer, uint256 permille);\n    event RoundFinalized(uint256 indexed roundId, address malicious, uint256 maliciousAvgPermille);\n\n    // ---------------------------------------------------------------------\n    // Modifiers\n    // ---------------------------------------------------------------------\n    modifier onlyOwner() { require(msg.sender == owner, \"not owner\"); _; }\n    modifier onlyRewarder() { require(msg.sender == rewarder, \"not rewarder\"); _; }\n    modifier roundIsActive(uint256 id) { require(roundActive[id], \"round not active\"); _; }\n\n    // ---------------------------------------------------------------------\n    // Constructor\n    // ---------------------------------------------------------------------\n    constructor(address _rewarder, address tokenAddress) {\n        owner = msg.sender;\n        rewarder = _rewarder;\n        token = EnsembleToken(tokenAddress);\n    }\n\n    // ---------------------------------------------------------------------\n    // Role management\n    // ---------------------------------------------------------------------\n    function setRewarder(address _rewarder) external onlyOwner {\n        rewarder = _rewarder;\n        emit RewarderUpdated(_rewarder);\n    }\n\n    function setTrainer(address who, bool enabled) external onlyOwner {\n        isTrainer[who] = enabled;\n        emit RoleUpdated(who, \"trainer\", enabled);\n    }\n\n    function setValidator(address who, bool enabled) external onlyOwner {\n        isValidator[who] = enabled;\n        emit RoleUpdated(who, \"validator\", enabled);\n    }\n\n    function setRewards(uint256 _trainer, uint256 _validator) external onlyOwner {\n        trainerReward = _trainer;\n        validatorReward = _validator;\n    }\n\n    // ---------------------------------------------------------------------\n    // Round lifecycle\n    // ---------------------------------------------------------------------\n    function startRound(address[] calldata trainers, address[] calldata validators)\n        external\n        onlyRewarder\n    {\n        require(!roundActive[currentRoundId + 1], \"next round already active\");\n        currentRoundId += 1;\n        roundActive[currentRoundId] = true;\n\n        for (uint i = 0; i < trainers.length; i++) {\n            require(isTrainer[trainers[i]], \"unknown trainer\");\n            roundTrainers[currentRoundId].push(trainers[i]);\n        }\n        for (uint j = 0; j < validators.length; j++) {\n            require(isValidator[validators[j]], \"unknown validator\");\n            roundValidators[currentRoundId].push(validators[j]);\n        }\n\n        emit RoundStarted(currentRoundId);\n    }\n\n    function submitModel(uint256 id, string calldata cid)\n        external\n        roundIsActive(id)\n    {\n        require(isTrainer[msg.sender], \"not trainer\");\n        require(!modelSubmitted[id][msg.sender], \"already submitted\");\n        modelSubmitted[id][msg.sender] = true;\n        modelCid[id][msg.sender] = cid;\n        emit ModelSubmitted(id, msg.sender, cid);\n    }\n\n    function submitAccuracy(uint256 id, address trainer, uint256 permille)\n        external\n        roundIsActive(id)\n    {\n        require(isValidator[msg.sender], \"not validator\");\n        require(modelSubmitted[id][trainer], \"no model\");\n        require(!validated[id][msg.sender][trainer], \"already validated\");\n        require(permille <= 1000, \"permille>1000\");\n\n        validated[id][msg.sender][trainer] = true;\n        accuracy[id][msg.sender][trainer] = permille;\n        countsByTrainer[id][trainer] += 1;\n        sumAccByTrainer[id][trainer] += permille;\n\n        emit AccuracySubmitted(id, msg.sender, trainer, permille);\n    }\n\n    // ---------------------------------------------------------------------\n    // Compute averages & finalize\n    // ---------------------------------------------------------------------\n    function averageAccuracy(uint256 id, address trainer)\n        public\n        view\n        returns (bool hasData, uint256 avg)\n    {\n        uint256 c = countsByTrainer[id][trainer];\n        if (c == 0) return (false, 0);\n        return (true, sumAccByTrainer[id][trainer] / c);\n    }\n\n    function finalizeRound(uint256 id)\n        external\n        onlyRewarder\n        roundIsActive(id)\n    {\n        require(!roundFinalized[id], \"already finalized\");\n        address[] memory trainers = roundTrainers[id];\n        require(trainers.length > 0, \"no trainers\");\n\n        address worst = trainers[0];\n        uint256 worstAvg = type(uint256).max;\n\n        for (uint i = 0; i < trainers.length; i++) {\n            (bool hasData, uint256 avg) = averageAccuracy(id, trainers[i]);\n            require(hasData, \"missing accuracy\");\n            if (avg < worstAvg) {\n                worstAvg = avg;\n                worst = trainers[i];\n            }\n        }\n\n        maliciousTrainer[id] = worst;\n        roundFinalized[id] = true;\n        roundActive[id] = false;\n\n        // Pay rewards in tokens\n        for (uint i = 0; i < trainers.length; i++) {\n            if (trainers[i] != worst) {\n                require(token.transfer(trainers[i], trainerReward), \"trainer reward failed\");\n            }\n        }\n        address[] memory validators = roundValidators[id];\n        for (uint j = 0; j < validators.length; j++) {\n            require(token.transfer(validators[j], validatorReward), \"validator reward failed\");\n        }\n\n        emit RoundFinalized(id, worst, worstAvg);\n    }\n}\n",
  "sourcePath": "/home/salma/decentralized-ensemble/contracts/EnsembleLearning.sol",
  "compiler": {
    "name": "solc",
    "version": "0.8.20+commit.a1b79de6.Emscripten.clang"
  },
  "schemaVersion": "3.4.16",
  "updatedAt": "2025-11-07T18:00:08.065Z",
  "devdoc": {
    "details": "Decentralized ensemble-learning coordination contract using ERC-20 token rewards",
    "kind": "dev",
    "methods": {},
    "title": "EnsembleLearning",
    "version": 1
  },
  "userdoc": {
    "kind": "user",
    "methods": {},
    "version": 1
  }
}