{
  "contractName": "EnsembleLearning",
  "abi": [
    {
      "inputs": [
        {
          "internalType": "address",
          "name": "_rewarder",
          "type": "address"
        }
      ],
      "stateMutability": "nonpayable",
      "type": "constructor"
    },
    {
      "anonymous": false,
      "inputs": [
        {
          "indexed": true,
          "internalType": "uint256",
          "name": "roundId",
          "type": "uint256"
        },
        {
          "indexed": true,
          "internalType": "address",
          "name": "validator",
          "type": "address"
        },
        {
          "indexed": true,
          "internalType": "address",
          "name": "trainer",
          "type": "address"
        },
        {
          "indexed": false,
          "internalType": "uint256",
          "name": "permille",
          "type": "uint256"
        }
      ],
      "name": "AccuracySubmitted",
      "type": "event"
    },
    {
      "anonymous": false,
      "inputs": [
        {
          "indexed": true,
          "internalType": "uint256",
          "name": "roundId",
          "type": "uint256"
        },
        {
          "indexed": true,
          "internalType": "address",
          "name": "trainer",
          "type": "address"
        },
        {
          "indexed": false,
          "internalType": "string",
          "name": "cid",
          "type": "string"
        }
      ],
      "name": "ModelSubmitted",
      "type": "event"
    },
    {
      "anonymous": false,
      "inputs": [
        {
          "indexed": true,
          "internalType": "address",
          "name": "rewarder",
          "type": "address"
        }
      ],
      "name": "RewarderUpdated",
      "type": "event"
    },
    {
      "anonymous": false,
      "inputs": [
        {
          "indexed": true,
          "internalType": "address",
          "name": "who",
          "type": "address"
        },
        {
          "indexed": false,
          "internalType": "string",
          "name": "role",
          "type": "string"
        },
        {
          "indexed": false,
          "internalType": "bool",
          "name": "enabled",
          "type": "bool"
        }
      ],
      "name": "RoleUpdated",
      "type": "event"
    },
    {
      "anonymous": false,
      "inputs": [
        {
          "indexed": true,
          "internalType": "uint256",
          "name": "roundId",
          "type": "uint256"
        },
        {
          "indexed": false,
          "internalType": "address",
          "name": "malicious",
          "type": "address"
        },
        {
          "indexed": false,
          "internalType": "uint256",
          "name": "maliciousAvgPermille",
          "type": "uint256"
        }
      ],
      "name": "RoundFinalized",
      "type": "event"
    },
    {
      "anonymous": false,
      "inputs": [
        {
          "indexed": true,
          "internalType": "uint256",
          "name": "roundId",
          "type": "uint256"
        }
      ],
      "name": "RoundStarted",
      "type": "event"
    },
    {
      "inputs": [
        {
          "internalType": "uint256",
          "name": "",
          "type": "uint256"
        },
        {
          "internalType": "address",
          "name": "",
          "type": "address"
        },
        {
          "internalType": "address",
          "name": "",
          "type": "address"
        }
      ],
      "name": "accuracy",
      "outputs": [
        {
          "internalType": "uint256",
          "name": "",
          "type": "uint256"
        }
      ],
      "stateMutability": "view",
      "type": "function",
      "constant": true
    },
    {
      "inputs": [
        {
          "internalType": "uint256",
          "name": "",
          "type": "uint256"
        },
        {
          "internalType": "address",
          "name": "",
          "type": "address"
        }
      ],
      "name": "countsByTrainer",
      "outputs": [
        {
          "internalType": "uint256",
          "name": "",
          "type": "uint256"
        }
      ],
      "stateMutability": "view",
      "type": "function",
      "constant": true
    },
    {
      "inputs": [],
      "name": "currentRoundId",
      "outputs": [
        {
          "internalType": "uint256",
          "name": "",
          "type": "uint256"
        }
      ],
      "stateMutability": "view",
      "type": "function",
      "constant": true
    },
    {
      "inputs": [
        {
          "internalType": "address",
          "name": "",
          "type": "address"
        }
      ],
      "name": "isTrainer",
      "outputs": [
        {
          "internalType": "bool",
          "name": "",
          "type": "bool"
        }
      ],
      "stateMutability": "view",
      "type": "function",
      "constant": true
    },
    {
      "inputs": [
        {
          "internalType": "address",
          "name": "",
          "type": "address"
        }
      ],
      "name": "isValidator",
      "outputs": [
        {
          "internalType": "bool",
          "name": "",
          "type": "bool"
        }
      ],
      "stateMutability": "view",
      "type": "function",
      "constant": true
    },
    {
      "inputs": [
        {
          "internalType": "uint256",
          "name": "",
          "type": "uint256"
        }
      ],
      "name": "maliciousTrainer",
      "outputs": [
        {
          "internalType": "address",
          "name": "",
          "type": "address"
        }
      ],
      "stateMutability": "view",
      "type": "function",
      "constant": true
    },
    {
      "inputs": [
        {
          "internalType": "uint256",
          "name": "",
          "type": "uint256"
        },
        {
          "internalType": "address",
          "name": "",
          "type": "address"
        }
      ],
      "name": "modelCid",
      "outputs": [
        {
          "internalType": "string",
          "name": "",
          "type": "string"
        }
      ],
      "stateMutability": "view",
      "type": "function",
      "constant": true
    },
    {
      "inputs": [
        {
          "internalType": "uint256",
          "name": "",
          "type": "uint256"
        },
        {
          "internalType": "address",
          "name": "",
          "type": "address"
        }
      ],
      "name": "modelSubmitted",
      "outputs": [
        {
          "internalType": "bool",
          "name": "",
          "type": "bool"
        }
      ],
      "stateMutability": "view",
      "type": "function",
      "constant": true
    },
    {
      "inputs": [],
      "name": "owner",
      "outputs": [
        {
          "internalType": "address",
          "name": "",
          "type": "address"
        }
      ],
      "stateMutability": "view",
      "type": "function",
      "constant": true
    },
    {
      "inputs": [],
      "name": "rewarder",
      "outputs": [
        {
          "internalType": "address",
          "name": "",
          "type": "address"
        }
      ],
      "stateMutability": "view",
      "type": "function",
      "constant": true
    },
    {
      "inputs": [
        {
          "internalType": "uint256",
          "name": "",
          "type": "uint256"
        }
      ],
      "name": "roundActive",
      "outputs": [
        {
          "internalType": "bool",
          "name": "",
          "type": "bool"
        }
      ],
      "stateMutability": "view",
      "type": "function",
      "constant": true
    },
    {
      "inputs": [
        {
          "internalType": "uint256",
          "name": "",
          "type": "uint256"
        }
      ],
      "name": "roundFinalized",
      "outputs": [
        {
          "internalType": "bool",
          "name": "",
          "type": "bool"
        }
      ],
      "stateMutability": "view",
      "type": "function",
      "constant": true
    },
    {
      "inputs": [
        {
          "internalType": "uint256",
          "name": "",
          "type": "uint256"
        },
        {
          "internalType": "uint256",
          "name": "",
          "type": "uint256"
        }
      ],
      "name": "roundTrainers",
      "outputs": [
        {
          "internalType": "address",
          "name": "",
          "type": "address"
        }
      ],
      "stateMutability": "view",
      "type": "function",
      "constant": true
    },
    {
      "inputs": [
        {
          "internalType": "uint256",
          "name": "",
          "type": "uint256"
        },
        {
          "internalType": "uint256",
          "name": "",
          "type": "uint256"
        }
      ],
      "name": "roundValidators",
      "outputs": [
        {
          "internalType": "address",
          "name": "",
          "type": "address"
        }
      ],
      "stateMutability": "view",
      "type": "function",
      "constant": true
    },
    {
      "inputs": [
        {
          "internalType": "uint256",
          "name": "",
          "type": "uint256"
        },
        {
          "internalType": "address",
          "name": "",
          "type": "address"
        }
      ],
      "name": "sumAccByTrainer",
      "outputs": [
        {
          "internalType": "uint256",
          "name": "",
          "type": "uint256"
        }
      ],
      "stateMutability": "view",
      "type": "function",
      "constant": true
    },
    {
      "inputs": [],
      "name": "trainerRewardWei",
      "outputs": [
        {
          "internalType": "uint256",
          "name": "",
          "type": "uint256"
        }
      ],
      "stateMutability": "view",
      "type": "function",
      "constant": true
    },
    {
      "inputs": [
        {
          "internalType": "uint256",
          "name": "",
          "type": "uint256"
        },
        {
          "internalType": "address",
          "name": "",
          "type": "address"
        },
        {
          "internalType": "address",
          "name": "",
          "type": "address"
        }
      ],
      "name": "validated",
      "outputs": [
        {
          "internalType": "bool",
          "name": "",
          "type": "bool"
        }
      ],
      "stateMutability": "view",
      "type": "function",
      "constant": true
    },
    {
      "inputs": [],
      "name": "validatorRewardWei",
      "outputs": [
        {
          "internalType": "uint256",
          "name": "",
          "type": "uint256"
        }
      ],
      "stateMutability": "view",
      "type": "function",
      "constant": true
    },
    {
      "stateMutability": "payable",
      "type": "receive",
      "payable": true
    },
    {
      "inputs": [
        {
          "internalType": "address",
          "name": "_rewarder",
          "type": "address"
        }
      ],
      "name": "setRewarder",
      "outputs": [],
      "stateMutability": "nonpayable",
      "type": "function"
    },
    {
      "inputs": [
        {
          "internalType": "address",
          "name": "who",
          "type": "address"
        },
        {
          "internalType": "bool",
          "name": "enabled",
          "type": "bool"
        }
      ],
      "name": "setTrainer",
      "outputs": [],
      "stateMutability": "nonpayable",
      "type": "function"
    },
    {
      "inputs": [
        {
          "internalType": "address",
          "name": "who",
          "type": "address"
        },
        {
          "internalType": "bool",
          "name": "enabled",
          "type": "bool"
        }
      ],
      "name": "setValidator",
      "outputs": [],
      "stateMutability": "nonpayable",
      "type": "function"
    },
    {
      "inputs": [
        {
          "internalType": "uint256",
          "name": "_trainerWei",
          "type": "uint256"
        },
        {
          "internalType": "uint256",
          "name": "_validatorWei",
          "type": "uint256"
        }
      ],
      "name": "setRewards",
      "outputs": [],
      "stateMutability": "nonpayable",
      "type": "function"
    },
    {
      "inputs": [
        {
          "internalType": "address[]",
          "name": "trainers",
          "type": "address[]"
        },
        {
          "internalType": "address[]",
          "name": "validators",
          "type": "address[]"
        }
      ],
      "name": "startRound",
      "outputs": [],
      "stateMutability": "nonpayable",
      "type": "function"
    },
    {
      "inputs": [
        {
          "internalType": "uint256",
          "name": "id",
          "type": "uint256"
        },
        {
          "internalType": "string",
          "name": "cid",
          "type": "string"
        }
      ],
      "name": "submitModel",
      "outputs": [],
      "stateMutability": "nonpayable",
      "type": "function"
    },
    {
      "inputs": [
        {
          "internalType": "uint256",
          "name": "id",
          "type": "uint256"
        },
        {
          "internalType": "address",
          "name": "trainer",
          "type": "address"
        },
        {
          "internalType": "uint256",
          "name": "permille",
          "type": "uint256"
        }
      ],
      "name": "submitAccuracy",
      "outputs": [],
      "stateMutability": "nonpayable",
      "type": "function"
    },
    {
      "inputs": [
        {
          "internalType": "uint256",
          "name": "id",
          "type": "uint256"
        },
        {
          "internalType": "address",
          "name": "trainer",
          "type": "address"
        }
      ],
      "name": "averageAccuracy",
      "outputs": [
        {
          "internalType": "bool",
          "name": "hasData",
          "type": "bool"
        },
        {
          "internalType": "uint256",
          "name": "avg",
          "type": "uint256"
        }
      ],
      "stateMutability": "view",
      "type": "function",
      "constant": true
    },
    {
      "inputs": [
        {
          "internalType": "uint256",
          "name": "id",
          "type": "uint256"
        }
      ],
      "name": "finalizeRound",
      "outputs": [],
      "stateMutability": "nonpayable",
      "type": "function"
    }
  ],
  "bytecode": "0x608060405266b1a2bc2ec5000060105566470de4df82000060115534801562000026575f80fd5b506040516200343e3803806200343e83398181016040528101906200004c919062000137565b335f806101000a81548173ffffffffffffffffffffffffffffffffffffffff021916908373ffffffffffffffffffffffffffffffffffffffff1602179055508060015f6101000a81548173ffffffffffffffffffffffffffffffffffffffff021916908373ffffffffffffffffffffffffffffffffffffffff1602179055505062000167565b5f80fd5b5f73ffffffffffffffffffffffffffffffffffffffff82169050919050565b5f6200010182620000d6565b9050919050565b6200011381620000f5565b81146200011e575f80fd5b50565b5f81519050620001318162000108565b92915050565b5f602082840312156200014f576200014e620000d2565b5b5f6200015e8482850162000121565b91505092915050565b6132c980620001755f395ff3fe60806040526004361061019f575f3560e01c80638da5cb5b116100eb578063c648355f11610089578063dcc3e06e11610063578063dcc3e06e14610627578063ddc7b43b14610651578063fa1a808c1461068d578063facd743b146106c9576101a6565b8063c648355f14610587578063d7151061146105c3578063dc283c40146105eb576101a6565b806394e656c4116100c557806394e656c4146104bb57806397002ee1146104e55780639cbe5efd146105215780639fd783581461054b576101a6565b80638da5cb5b1461043f5780638def5973146104695780639122c93a14610491576101a6565b80634623c91d1161015857806350beca781161013257806350beca781461036357806363ce975d1461039f578063654e51e7146103db5780636e49e7fb14610403576101a6565b80634623c91d146102d75780634d1139ae146102ff5780634fe0a1141461033b576101a6565b80630102ae85146101aa57806306eb2f4e146101d25780632eb222b01461020f57806332faf1241461024b5780633469f6e2146102875780633a6462e4146102af576101a6565b366101a657005b5f80fd5b3480156101b5575f80fd5b506101d060048036038101906101cb919061217c565b610705565b005b3480156101dd575f80fd5b506101f860048036038101906101f39190612233565b61099c565b60405161020692919061229a565b60405180910390f35b34801561021a575f80fd5b50610235600480360381019061023091906122c1565b610a68565b6040516102429190612311565b60405180910390f35b348015610256575f80fd5b50610271600480360381019061026c9190612233565b610a9d565b60405161027e919061232a565b60405180910390f35b348015610292575f80fd5b506102ad60048036038101906102a89190612343565b610abd565b005b3480156102ba575f80fd5b506102d560048036038101906102d0919061236e565b611027565b005b3480156102e2575f80fd5b506102fd60048036038101906102f891906123c3565b61113a565b005b34801561030a575f80fd5b5061032560048036038101906103209190612343565b61126d565b6040516103329190612311565b60405180910390f35b348015610346575f80fd5b50610361600480360381019061035c9190612456565b61128a565b005b34801561036e575f80fd5b506103896004803603810190610384919061236e565b6116d0565b6040516103969190612311565b60405180910390f35b3480156103aa575f80fd5b506103c560048036038101906103c091906124d4565b6116ed565b6040516103d29190612521565b60405180910390f35b3480156103e6575f80fd5b5061040160048036038101906103fc91906124d4565b611735565b005b34801561040e575f80fd5b5061042960048036038101906104249190612343565b6117d4565b6040516104369190612521565b60405180910390f35b34801561044a575f80fd5b50610453611804565b6040516104609190612521565b60405180910390f35b348015610474575f80fd5b5061048f600480360381019061048a91906123c3565b611827565b005b34801561049c575f80fd5b506104a561195a565b6040516104b2919061232a565b60405180910390f35b3480156104c6575f80fd5b506104cf611960565b6040516104dc919061232a565b60405180910390f35b3480156104f0575f80fd5b5061050b600480360381019061050691906124d4565b611966565b6040516105189190612521565b60405180910390f35b34801561052c575f80fd5b506105356119ae565b604051610542919061232a565b60405180910390f35b348015610556575f80fd5b50610571600480360381019061056c91906122c1565b6119b4565b60405161057e919061232a565b60405180910390f35b348015610592575f80fd5b506105ad60048036038101906105a89190612233565b6119df565b6040516105ba9190612311565b60405180910390f35b3480156105ce575f80fd5b506105e960048036038101906105e4919061253a565b611a09565b005b3480156105f6575f80fd5b50610611600480360381019061060c9190612233565b611efd565b60405161061e9190612614565b60405180910390f35b348015610632575f80fd5b5061063b611fa3565b6040516106489190612521565b60405180910390f35b34801561065c575f80fd5b5061067760048036038101906106729190612343565b611fc8565b6040516106849190612311565b60405180910390f35b348015610698575f80fd5b506106b360048036038101906106ae9190612233565b611fe5565b6040516106c0919061232a565b60405180910390f35b3480156106d4575f80fd5b506106ef60048036038101906106ea919061236e565b612005565b6040516106fc9190612311565b60405180910390f35b8260055f8281526020019081526020015f205f9054906101000a900460ff16610763576040517f08c379a000000000000000000000000000000000000000000000000000000000815260040161075a9061267e565b60405180910390fd5b60025f3373ffffffffffffffffffffffffffffffffffffffff1673ffffffffffffffffffffffffffffffffffffffff1681526020019081526020015f205f9054906101000a900460ff166107ec576040517f08c379a00000000000000000000000000000000000000000000000000000000081526004016107e3906126e6565b60405180910390fd5b60095f8581526020019081526020015f205f3373ffffffffffffffffffffffffffffffffffffffff1673ffffffffffffffffffffffffffffffffffffffff1681526020019081526020015f205f9054906101000a900460ff1615610885576040517f08c379a000000000000000000000000000000000000000000000000000000000815260040161087c9061274e565b60405180910390fd5b600160095f8681526020019081526020015f205f3373ffffffffffffffffffffffffffffffffffffffff1673ffffffffffffffffffffffffffffffffffffffff1681526020019081526020015f205f6101000a81548160ff021916908315150217905550828260085f8781526020019081526020015f205f3373ffffffffffffffffffffffffffffffffffffffff1673ffffffffffffffffffffffffffffffffffffffff1681526020019081526020015f20918261094492919061299d565b503373ffffffffffffffffffffffffffffffffffffffff16847f9d222ed2b73a1858a94311576b5ad3188404d49a191f5f9313f93d5050e1224f858560405161098e929190612aa4565b60405180910390a350505050565b5f805f600c5f8681526020019081526020015f205f8573ffffffffffffffffffffffffffffffffffffffff1673ffffffffffffffffffffffffffffffffffffffff1681526020019081526020015f205490505f8103610a01575f809250925050610a61565b600181600d5f8881526020019081526020015f205f8773ffffffffffffffffffffffffffffffffffffffff1673ffffffffffffffffffffffffffffffffffffffff1681526020019081526020015f2054610a5b9190612b20565b92509250505b9250929050565b600b602052825f5260405f20602052815f5260405f20602052805f5260405f205f92509250509054906101000a900460ff1681565b600d602052815f5260405f20602052805f5260405f205f91509150505481565b60015f9054906101000a900473ffffffffffffffffffffffffffffffffffffffff1673ffffffffffffffffffffffffffffffffffffffff163373ffffffffffffffffffffffffffffffffffffffff1614610b4c576040517f08c379a0000000000000000000000000000000000000000000000000000000008152600401610b4390612b9a565b60405180910390fd5b8060055f8281526020019081526020015f205f9054906101000a900460ff16610baa576040517f08c379a0000000000000000000000000000000000000000000000000000000008152600401610ba19061267e565b60405180910390fd5b600f5f8381526020019081526020015f205f9054906101000a900460ff1615610c08576040517f08c379a0000000000000000000000000000000000000000000000000000000008152600401610bff90612c02565b60405180910390fd5b5f60065f8481526020019081526020015f20805480602002602001604051908101604052809291908181526020018280548015610c9757602002820191905f5260205f20905b815f9054906101000a900473ffffffffffffffffffffffffffffffffffffffff1673ffffffffffffffffffffffffffffffffffffffff1681526020019060010190808311610c4e575b505050505090505f815111610ce1576040517f08c379a0000000000000000000000000000000000000000000000000000000008152600401610cd890612c6a565b60405180910390fd5b5f815f81518110610cf557610cf4612c88565b5b602002602001015190505f7fffffffffffffffffffffffffffffffffffffffffffffffffffffffffffffffff90505f5b8351811015610dd6575f80610d5488878581518110610d4757610d46612c88565b5b602002602001015161099c565b9150915081610d98576040517f08c379a0000000000000000000000000000000000000000000000000000000008152600401610d8f90612cff565b60405180910390fd5b83811015610dc157809350858381518110610db657610db5612c88565b5b602002602001015194505b50508080610dce90612d1d565b915050610d25565b5081600e5f8781526020019081526020015f205f6101000a81548173ffffffffffffffffffffffffffffffffffffffff021916908373ffffffffffffffffffffffffffffffffffffffff1602179055506001600f5f8781526020019081526020015f205f6101000a81548160ff0219169083151502179055505f60055f8781526020019081526020015f205f6101000a81548160ff0219169083151502179055505f5b8351811015610f09578273ffffffffffffffffffffffffffffffffffffffff16848281518110610eac57610eab612c88565b5b602002602001015173ffffffffffffffffffffffffffffffffffffffff1614610ef657610ef5848281518110610ee557610ee4612c88565b5b6020026020010151601054612022565b5b8080610f0190612d1d565b915050610e79565b505f60075f8781526020019081526020015f20805480602002602001604051908101604052809291908181526020018280548015610f9957602002820191905f5260205f20905b815f9054906101000a900473ffffffffffffffffffffffffffffffffffffffff1673ffffffffffffffffffffffffffffffffffffffff1681526020019060010190808311610f50575b505050505090505f5b8151811015610fe457610fd1828281518110610fc157610fc0612c88565b5b6020026020010151601154612022565b8080610fdc90612d1d565b915050610fa2565b50857f8d77f26f27e7ae0d96df68d7333d36df3293a2ca2206d7c03f3c82d80f6944088484604051611017929190612d64565b60405180910390a2505050505050565b5f8054906101000a900473ffffffffffffffffffffffffffffffffffffffff1673ffffffffffffffffffffffffffffffffffffffff163373ffffffffffffffffffffffffffffffffffffffff16146110b4576040517f08c379a00000000000000000000000000000000000000000000000000000000081526004016110ab90612dd5565b60405180910390fd5b8060015f6101000a81548173ffffffffffffffffffffffffffffffffffffffff021916908373ffffffffffffffffffffffffffffffffffffffff1602179055508073ffffffffffffffffffffffffffffffffffffffff167f47c9042c3be42a955f60f9b75006522826af1a3bed83e26646997d3bcccda77c60405160405180910390a250565b5f8054906101000a900473ffffffffffffffffffffffffffffffffffffffff1673ffffffffffffffffffffffffffffffffffffffff163373ffffffffffffffffffffffffffffffffffffffff16146111c7576040517f08c379a00000000000000000000000000000000000000000000000000000000081526004016111be90612dd5565b60405180910390fd5b8060035f8473ffffffffffffffffffffffffffffffffffffffff1673ffffffffffffffffffffffffffffffffffffffff1681526020019081526020015f205f6101000a81548160ff0219169083151502179055508173ffffffffffffffffffffffffffffffffffffffff167fc4d12f4fed3c7d8e40b10b954dc4b19c26000388e17fd31b4af750dd33b41664826040516112619190612e3d565b60405180910390a25050565b600f602052805f5260405f205f915054906101000a900460ff1681565b60015f9054906101000a900473ffffffffffffffffffffffffffffffffffffffff1673ffffffffffffffffffffffffffffffffffffffff163373ffffffffffffffffffffffffffffffffffffffff1614611319576040517f08c379a000000000000000000000000000000000000000000000000000000000815260040161131090612b9a565b60405180910390fd5b60055f600160045461132b9190612e69565b81526020019081526020015f205f9054906101000a900460ff1615611385576040517f08c379a000000000000000000000000000000000000000000000000000000000815260040161137c90612ee6565b60405180910390fd5b600160045f8282546113979190612e69565b92505081905550600160055f60045481526020019081526020015f205f6101000a81548160ff0219169083151502179055505f5b848490508110156115315760025f8686848181106113ec576113eb612c88565b5b9050602002016020810190611401919061236e565b73ffffffffffffffffffffffffffffffffffffffff1673ffffffffffffffffffffffffffffffffffffffff1681526020019081526020015f205f9054906101000a900460ff16611486576040517f08c379a000000000000000000000000000000000000000000000000000000000815260040161147d90612f4e565b60405180910390fd5b60065f60045481526020019081526020015f208585838181106114ac576114ab612c88565b5b90506020020160208101906114c1919061236e565b908060018154018082558091505060019003905f5260205f20015f9091909190916101000a81548173ffffffffffffffffffffffffffffffffffffffff021916908373ffffffffffffffffffffffffffffffffffffffff160217905550808061152990612d1d565b9150506113cb565b505f5b8282905081101561169a5760035f84848481811061155557611554612c88565b5b905060200201602081019061156a919061236e565b73ffffffffffffffffffffffffffffffffffffffff1673ffffffffffffffffffffffffffffffffffffffff1681526020019081526020015f205f9054906101000a900460ff166115ef576040517f08c379a00000000000000000000000000000000000000000000000000000000081526004016115e690612fb6565b60405180910390fd5b60075f60045481526020019081526020015f2083838381811061161557611614612c88565b5b905060200201602081019061162a919061236e565b908060018154018082558091505060019003905f5260205f20015f9091909190916101000a81548173ffffffffffffffffffffffffffffffffffffffff021916908373ffffffffffffffffffffffffffffffffffffffff160217905550808061169290612d1d565b915050611534565b506004547f33a701182892fd888ed152ca2ac23771a32e814469b7cd255965471e1af3a65960405160405180910390a250505050565b6002602052805f5260405f205f915054906101000a900460ff1681565b6006602052815f5260405f208181548110611706575f80fd5b905f5260205f20015f915091509054906101000a900473ffffffffffffffffffffffffffffffffffffffff1681565b5f8054906101000a900473ffffffffffffffffffffffffffffffffffffffff1673ffffffffffffffffffffffffffffffffffffffff163373ffffffffffffffffffffffffffffffffffffffff16146117c2576040517f08c379a00000000000000000000000000000000000000000000000000000000081526004016117b990612dd5565b60405180910390fd5b81601081905550806011819055505050565b600e602052805f5260405f205f915054906101000a900473ffffffffffffffffffffffffffffffffffffffff1681565b5f8054906101000a900473ffffffffffffffffffffffffffffffffffffffff1681565b5f8054906101000a900473ffffffffffffffffffffffffffffffffffffffff1673ffffffffffffffffffffffffffffffffffffffff163373ffffffffffffffffffffffffffffffffffffffff16146118b4576040517f08c379a00000000000000000000000000000000000000000000000000000000081526004016118ab90612dd5565b60405180910390fd5b8060025f8473ffffffffffffffffffffffffffffffffffffffff1673ffffffffffffffffffffffffffffffffffffffff1681526020019081526020015f205f6101000a81548160ff0219169083151502179055508173ffffffffffffffffffffffffffffffffffffffff167fc4d12f4fed3c7d8e40b10b954dc4b19c26000388e17fd31b4af750dd33b416648260405161194e919061301e565b60405180910390a25050565b60105481565b60115481565b6007602052815f5260405f20818154811061197f575f80fd5b905f5260205f20015f915091509054906101000a900473ffffffffffffffffffffffffffffffffffffffff1681565b60045481565b600a602052825f5260405f20602052815f5260405f20602052805f5260405f205f9250925050505481565b6009602052815f5260405f20602052805f5260405f205f915091509054906101000a900460ff1681565b8260055f8281526020019081526020015f205f9054906101000a900460ff16611a67576040517f08c379a0000000000000000000000000000000000000000000000000000000008152600401611a5e9061267e565b60405180910390fd5b60035f3373ffffffffffffffffffffffffffffffffffffffff1673ffffffffffffffffffffffffffffffffffffffff1681526020019081526020015f205f9054906101000a900460ff16611af0576040517f08c379a0000000000000000000000000000000000000000000000000000000008152600401611ae790613094565b60405180910390fd5b60095f8581526020019081526020015f205f8473ffffffffffffffffffffffffffffffffffffffff1673ffffffffffffffffffffffffffffffffffffffff1681526020019081526020015f205f9054906101000a900460ff16611b88576040517f08c379a0000000000000000000000000000000000000000000000000000000008152600401611b7f906130fc565b60405180910390fd5b600b5f8581526020019081526020015f205f3373ffffffffffffffffffffffffffffffffffffffff1673ffffffffffffffffffffffffffffffffffffffff1681526020019081526020015f205f8473ffffffffffffffffffffffffffffffffffffffff1673ffffffffffffffffffffffffffffffffffffffff1681526020019081526020015f205f9054906101000a900460ff1615611c5c576040517f08c379a0000000000000000000000000000000000000000000000000000000008152600401611c5390613164565b60405180910390fd5b6103e8821115611ca1576040517f08c379a0000000000000000000000000000000000000000000000000000000008152600401611c98906131cc565b60405180910390fd5b6001600b5f8681526020019081526020015f205f3373ffffffffffffffffffffffffffffffffffffffff1673ffffffffffffffffffffffffffffffffffffffff1681526020019081526020015f205f8573ffffffffffffffffffffffffffffffffffffffff1673ffffffffffffffffffffffffffffffffffffffff1681526020019081526020015f205f6101000a81548160ff02191690831515021790555081600a5f8681526020019081526020015f205f3373ffffffffffffffffffffffffffffffffffffffff1673ffffffffffffffffffffffffffffffffffffffff1681526020019081526020015f205f8573ffffffffffffffffffffffffffffffffffffffff1673ffffffffffffffffffffffffffffffffffffffff1681526020019081526020015f20819055506001600c5f8681526020019081526020015f205f8573ffffffffffffffffffffffffffffffffffffffff1673ffffffffffffffffffffffffffffffffffffffff1681526020019081526020015f205f828254611e289190612e69565b9250508190555081600d5f8681526020019081526020015f205f8573ffffffffffffffffffffffffffffffffffffffff1673ffffffffffffffffffffffffffffffffffffffff1681526020019081526020015f205f828254611e8a9190612e69565b925050819055508273ffffffffffffffffffffffffffffffffffffffff163373ffffffffffffffffffffffffffffffffffffffff16857f2f1635a4366ab447a010f578321de9fd960facf62b7509ff0d065cf8b8b7538685604051611eef919061232a565b60405180910390a450505050565b6008602052815f5260405f20602052805f5260405f205f91509150508054611f24906127d0565b80601f0160208091040260200160405190810160405280929190818152602001828054611f50906127d0565b8015611f9b5780601f10611f7257610100808354040283529160200191611f9b565b820191905f5260205f20905b815481529060010190602001808311611f7e57829003601f168201915b505050505081565b60015f9054906101000a900473ffffffffffffffffffffffffffffffffffffffff1681565b6005602052805f5260405f205f915054906101000a900460ff1681565b600c602052815f5260405f20602052805f5260405f205f91509150505481565b6003602052805f5260405f205f915054906101000a900460ff1681565b5f8103156120dc578047106120db575f8273ffffffffffffffffffffffffffffffffffffffff168260405161205690613217565b5f6040518083038185875af1925050503d805f8114612090576040519150601f19603f3d011682016040523d82523d5f602084013e612095565b606091505b50509050806120d9576040517f08c379a00000000000000000000000000000000000000000000000000000000081526004016120d090613275565b60405180910390fd5b505b5b5050565b5f80fd5b5f80fd5b5f819050919050565b6120fa816120e8565b8114612104575f80fd5b50565b5f81359050612115816120f1565b92915050565b5f80fd5b5f80fd5b5f80fd5b5f8083601f84011261213c5761213b61211b565b5b8235905067ffffffffffffffff8111156121595761215861211f565b5b60208301915083600182028301111561217557612174612123565b5b9250929050565b5f805f60408486031215612193576121926120e0565b5b5f6121a086828701612107565b935050602084013567ffffffffffffffff8111156121c1576121c06120e4565b5b6121cd86828701612127565b92509250509250925092565b5f73ffffffffffffffffffffffffffffffffffffffff82169050919050565b5f612202826121d9565b9050919050565b612212816121f8565b811461221c575f80fd5b50565b5f8135905061222d81612209565b92915050565b5f8060408385031215612249576122486120e0565b5b5f61225685828601612107565b92505060206122678582860161221f565b9150509250929050565b5f8115159050919050565b61228581612271565b82525050565b612294816120e8565b82525050565b5f6040820190506122ad5f83018561227c565b6122ba602083018461228b565b9392505050565b5f805f606084860312156122d8576122d76120e0565b5b5f6122e586828701612107565b93505060206122f68682870161221f565b92505060406123078682870161221f565b9150509250925092565b5f6020820190506123245f83018461227c565b92915050565b5f60208201905061233d5f83018461228b565b92915050565b5f60208284031215612358576123576120e0565b5b5f61236584828501612107565b91505092915050565b5f60208284031215612383576123826120e0565b5b5f6123908482850161221f565b91505092915050565b6123a281612271565b81146123ac575f80fd5b50565b5f813590506123bd81612399565b92915050565b5f80604083850312156123d9576123d86120e0565b5b5f6123e68582860161221f565b92505060206123f7858286016123af565b9150509250929050565b5f8083601f8401126124165761241561211b565b5b8235905067ffffffffffffffff8111156124335761243261211f565b5b60208301915083602082028301111561244f5761244e612123565b5b9250929050565b5f805f806040858703121561246e5761246d6120e0565b5b5f85013567ffffffffffffffff81111561248b5761248a6120e4565b5b61249787828801612401565b9450945050602085013567ffffffffffffffff8111156124ba576124b96120e4565b5b6124c687828801612401565b925092505092959194509250565b5f80604083850312156124ea576124e96120e0565b5b5f6124f785828601612107565b925050602061250885828601612107565b9150509250929050565b61251b816121f8565b82525050565b5f6020820190506125345f830184612512565b92915050565b5f805f60608486031215612551576125506120e0565b5b5f61255e86828701612107565b935050602061256f8682870161221f565b925050604061258086828701612107565b9150509250925092565b5f81519050919050565b5f82825260208201905092915050565b5f5b838110156125c15780820151818401526020810190506125a6565b5f8484015250505050565b5f601f19601f8301169050919050565b5f6125e68261258a565b6125f08185612594565b93506126008185602086016125a4565b612609816125cc565b840191505092915050565b5f6020820190508181035f83015261262c81846125dc565b905092915050565b7f726f756e64206e6f7420616374697665000000000000000000000000000000005f82015250565b5f612668601083612594565b915061267382612634565b602082019050919050565b5f6020820190508181035f8301526126958161265c565b9050919050565b7f6e6f7420747261696e65720000000000000000000000000000000000000000005f82015250565b5f6126d0600b83612594565b91506126db8261269c565b602082019050919050565b5f6020820190508181035f8301526126fd816126c4565b9050919050565b7f616c7265616479207375626d69747465640000000000000000000000000000005f82015250565b5f612738601183612594565b915061274382612704565b602082019050919050565b5f6020820190508181035f8301526127658161272c565b9050919050565b5f82905092915050565b7f4e487b71000000000000000000000000000000000000000000000000000000005f52604160045260245ffd5b7f4e487b71000000000000000000000000000000000000000000000000000000005f52602260045260245ffd5b5f60028204905060018216806127e757607f821691505b6020821081036127fa576127f96127a3565b5b50919050565b5f819050815f5260205f209050919050565b5f6020601f8301049050919050565b5f82821b905092915050565b5f6008830261285c7fffffffffffffffffffffffffffffffffffffffffffffffffffffffffffffffff82612821565b6128668683612821565b95508019841693508086168417925050509392505050565b5f819050919050565b5f6128a161289c612897846120e8565b61287e565b6120e8565b9050919050565b5f819050919050565b6128ba83612887565b6128ce6128c6826128a8565b84845461282d565b825550505050565b5f90565b6128e26128d6565b6128ed8184846128b1565b505050565b5b81811015612910576129055f826128da565b6001810190506128f3565b5050565b601f8211156129555761292681612800565b61292f84612812565b8101602085101561293e578190505b61295261294a85612812565b8301826128f2565b50505b505050565b5f82821c905092915050565b5f6129755f198460080261295a565b1980831691505092915050565b5f61298d8383612966565b9150826002028217905092915050565b6129a7838361276c565b67ffffffffffffffff8111156129c0576129bf612776565b5b6129ca82546127d0565b6129d5828285612914565b5f601f831160018114612a02575f84156129f0578287013590505b6129fa8582612982565b865550612a61565b601f198416612a1086612800565b5f5b82811015612a3757848901358255600182019150602085019450602081019050612a12565b86831015612a545784890135612a50601f891682612966565b8355505b6001600288020188555050505b50505050505050565b828183375f83830152505050565b5f612a838385612594565b9350612a90838584612a6a565b612a99836125cc565b840190509392505050565b5f6020820190508181035f830152612abd818486612a78565b90509392505050565b7f4e487b71000000000000000000000000000000000000000000000000000000005f52601260045260245ffd5b7f4e487b71000000000000000000000000000000000000000000000000000000005f52601160045260245ffd5b5f612b2a826120e8565b9150612b35836120e8565b925082612b4557612b44612ac6565b5b828204905092915050565b7f6e6f7420726577617264657200000000000000000000000000000000000000005f82015250565b5f612b84600c83612594565b9150612b8f82612b50565b602082019050919050565b5f6020820190508181035f830152612bb181612b78565b9050919050565b7f616c72656164792066696e616c697a65640000000000000000000000000000005f82015250565b5f612bec601183612594565b9150612bf782612bb8565b602082019050919050565b5f6020820190508181035f830152612c1981612be0565b9050919050565b7f6e6f20747261696e6572730000000000000000000000000000000000000000005f82015250565b5f612c54600b83612594565b9150612c5f82612c20565b602082019050919050565b5f6020820190508181035f830152612c8181612c48565b9050919050565b7f4e487b71000000000000000000000000000000000000000000000000000000005f52603260045260245ffd5b7f6d697373696e67206163637572616379000000000000000000000000000000005f82015250565b5f612ce9601083612594565b9150612cf482612cb5565b602082019050919050565b5f6020820190508181035f830152612d1681612cdd565b9050919050565b5f612d27826120e8565b91507fffffffffffffffffffffffffffffffffffffffffffffffffffffffffffffffff8203612d5957612d58612af3565b5b600182019050919050565b5f604082019050612d775f830185612512565b612d84602083018461228b565b9392505050565b7f6e6f74206f776e657200000000000000000000000000000000000000000000005f82015250565b5f612dbf600983612594565b9150612dca82612d8b565b602082019050919050565b5f6020820190508181035f830152612dec81612db3565b9050919050565b7f76616c696461746f7200000000000000000000000000000000000000000000005f82015250565b5f612e27600983612594565b9150612e3282612df3565b602082019050919050565b5f6040820190508181035f830152612e5481612e1b565b9050612e63602083018461227c565b92915050565b5f612e73826120e8565b9150612e7e836120e8565b9250828201905080821115612e9657612e95612af3565b5b92915050565b7f6e65787420726f756e6420616c726561647920616374697665000000000000005f82015250565b5f612ed0601983612594565b9150612edb82612e9c565b602082019050919050565b5f6020820190508181035f830152612efd81612ec4565b9050919050565b7f756e6b6e6f776e20747261696e657200000000000000000000000000000000005f82015250565b5f612f38600f83612594565b9150612f4382612f04565b602082019050919050565b5f6020820190508181035f830152612f6581612f2c565b9050919050565b7f756e6b6e6f776e2076616c696461746f720000000000000000000000000000005f82015250565b5f612fa0601183612594565b9150612fab82612f6c565b602082019050919050565b5f6020820190508181035f830152612fcd81612f94565b9050919050565b7f747261696e6572000000000000000000000000000000000000000000000000005f82015250565b5f613008600783612594565b915061301382612fd4565b602082019050919050565b5f6040820190508181035f83015261303581612ffc565b9050613044602083018461227c565b92915050565b7f6e6f742076616c696461746f72000000000000000000000000000000000000005f82015250565b5f61307e600d83612594565b91506130898261304a565b602082019050919050565b5f6020820190508181035f8301526130ab81613072565b9050919050565b7f6e6f206d6f64656c0000000000000000000000000000000000000000000000005f82015250565b5f6130e6600883612594565b91506130f1826130b2565b602082019050919050565b5f6020820190508181035f830152613113816130da565b9050919050565b7f616c72656164792076616c6964617465640000000000000000000000000000005f82015250565b5f61314e601183612594565b91506131598261311a565b602082019050919050565b5f6020820190508181035f83015261317b81613142565b9050919050565b7f7065726d696c6c653e31303030000000000000000000000000000000000000005f82015250565b5f6131b6600d83612594565b91506131c182613182565b602082019050919050565b5f6020820190508181035f8301526131e3816131aa565b9050919050565b5f81905092915050565b50565b5f6132025f836131ea565b915061320d826131f4565b5f82019050919050565b5f613221826131f7565b9150819050919050565b7f7061796f7574206661696c6564000000000000000000000000000000000000005f82015250565b5f61325f600d83612594565b915061326a8261322b565b602082019050919050565b5f6020820190508181035f83015261328c81613253565b905091905056fea2646970667358221220a8637e58a44fef913d2f58cd8c28270c0ea05e6aed38bc8e6f49b3808f15f97d64736f6c63430008140033",
  "immutableReferences": {},
  "source": "// SPDX-License-Identifier: MIT\npragma solidity ^0.8.20;\n\n/**\n * @title EnsembleLearning\n * @dev Decentralized ensemble-learning coordination:\n *  - Trainers upload model CIDs (IPFS hashes)\n *  - Validators report accuracies\n *  - Rewarder finalizes, selects malicious trainer (lowest avg accuracy)\n *  - Rewards distributed to everyone except the malicious trainer\n */\ncontract EnsembleLearning {\n    // ---------------------------------------------------------------------\n    // Roles & state\n    // ---------------------------------------------------------------------\n    address public owner;\n    address public rewarder;\n\n    mapping(address => bool) public isTrainer;\n    mapping(address => bool) public isValidator;\n\n    uint256 public currentRoundId;\n    mapping(uint256 => bool) public roundActive;\n\n    mapping(uint256 => address[]) public roundTrainers;\n    mapping(uint256 => address[]) public roundValidators;\n\n    mapping(uint256 => mapping(address => string)) public modelCid;\n    mapping(uint256 => mapping(address => bool)) public modelSubmitted;\n\n    mapping(uint256 => mapping(address => mapping(address => uint256))) public accuracy; // roundvalidatortrainerpermille\n    mapping(uint256 => mapping(address => mapping(address => bool))) public validated;\n\n    mapping(uint256 => mapping(address => uint256)) public countsByTrainer;\n    mapping(uint256 => mapping(address => uint256)) public sumAccByTrainer;\n\n    mapping(uint256 => address) public maliciousTrainer;\n    mapping(uint256 => bool) public roundFinalized;\n\n    uint256 public trainerRewardWei = 0.05 ether;\n    uint256 public validatorRewardWei = 0.02 ether;\n\n    // ---------------------------------------------------------------------\n    // Events\n    // ---------------------------------------------------------------------\n    event RoleUpdated(address indexed who, string role, bool enabled);\n    event RewarderUpdated(address indexed rewarder);\n    event RoundStarted(uint256 indexed roundId);\n    event ModelSubmitted(uint256 indexed roundId, address indexed trainer, string cid);\n    event AccuracySubmitted(uint256 indexed roundId, address indexed validator, address indexed trainer, uint256 permille);\n    event RoundFinalized(uint256 indexed roundId, address malicious, uint256 maliciousAvgPermille);\n\n    // ---------------------------------------------------------------------\n    // Modifiers\n    // ---------------------------------------------------------------------\n    modifier onlyOwner() { require(msg.sender == owner, \"not owner\"); _; }\n    modifier onlyRewarder() { require(msg.sender == rewarder, \"not rewarder\"); _; }\n    modifier roundIsActive(uint256 id) { require(roundActive[id], \"round not active\"); _; }\n\n    constructor(address _rewarder) {\n        owner = msg.sender;\n        rewarder = _rewarder;\n    }\n\n    receive() external payable {}\n\n    // ---------------------------------------------------------------------\n    // Role management\n    // ---------------------------------------------------------------------\n    function setRewarder(address _rewarder) external onlyOwner {\n        rewarder = _rewarder;\n        emit RewarderUpdated(_rewarder);\n    }\n\n    function setTrainer(address who, bool enabled) external onlyOwner {\n        isTrainer[who] = enabled;\n        emit RoleUpdated(who, \"trainer\", enabled);\n    }\n\n    function setValidator(address who, bool enabled) external onlyOwner {\n        isValidator[who] = enabled;\n        emit RoleUpdated(who, \"validator\", enabled);\n    }\n\n    function setRewards(uint256 _trainerWei, uint256 _validatorWei) external onlyOwner {\n        trainerRewardWei = _trainerWei;\n        validatorRewardWei = _validatorWei;\n    }\n\n    // ---------------------------------------------------------------------\n    // Round lifecycle\n    // ---------------------------------------------------------------------\n    function startRound(address[] calldata trainers, address[] calldata validators)\n        external\n        onlyRewarder\n    {\n        require(!roundActive[currentRoundId + 1], \"next round already active\");\n        currentRoundId += 1;\n        roundActive[currentRoundId] = true;\n\n        for (uint i = 0; i < trainers.length; i++) {\n            require(isTrainer[trainers[i]], \"unknown trainer\");\n            roundTrainers[currentRoundId].push(trainers[i]);\n        }\n        for (uint j = 0; j < validators.length; j++) {\n            require(isValidator[validators[j]], \"unknown validator\");\n            roundValidators[currentRoundId].push(validators[j]);\n        }\n\n        emit RoundStarted(currentRoundId);\n    }\n\n    function submitModel(uint256 id, string calldata cid)\n        external\n        roundIsActive(id)\n    {\n        require(isTrainer[msg.sender], \"not trainer\");\n        require(!modelSubmitted[id][msg.sender], \"already submitted\");\n        modelSubmitted[id][msg.sender] = true;\n        modelCid[id][msg.sender] = cid;\n        emit ModelSubmitted(id, msg.sender, cid);\n    }\n\n    function submitAccuracy(uint256 id, address trainer, uint256 permille)\n        external\n        roundIsActive(id)\n    {\n        require(isValidator[msg.sender], \"not validator\");\n        require(modelSubmitted[id][trainer], \"no model\");\n        require(!validated[id][msg.sender][trainer], \"already validated\");\n        require(permille <= 1000, \"permille>1000\");\n\n        validated[id][msg.sender][trainer] = true;\n        accuracy[id][msg.sender][trainer] = permille;\n        countsByTrainer[id][trainer] += 1;\n        sumAccByTrainer[id][trainer] += permille;\n\n        emit AccuracySubmitted(id, msg.sender, trainer, permille);\n    }\n\n    // ---------------------------------------------------------------------\n    // Compute averages & finalize\n    // ---------------------------------------------------------------------\n    function averageAccuracy(uint256 id, address trainer)\n        public\n        view\n        returns (bool hasData, uint256 avg)\n    {\n        uint256 c = countsByTrainer[id][trainer];\n        if (c == 0) return (false, 0);\n        return (true, sumAccByTrainer[id][trainer] / c);\n    }\n\n    function finalizeRound(uint256 id)\n        external\n        onlyRewarder\n        roundIsActive(id)\n    {\n        require(!roundFinalized[id], \"already finalized\");\n        address[] memory trainers = roundTrainers[id];\n        require(trainers.length > 0, \"no trainers\");\n\n        address worst = trainers[0];\n        uint256 worstAvg = type(uint256).max;\n\n        for (uint i = 0; i < trainers.length; i++) {\n            (bool hasData, uint256 avg) = averageAccuracy(id, trainers[i]);\n            require(hasData, \"missing accuracy\");\n            if (avg < worstAvg) {\n                worstAvg = avg;\n                worst = trainers[i];\n            }\n        }\n\n        maliciousTrainer[id] = worst;\n        roundFinalized[id] = true;\n        roundActive[id] = false;\n\n        // Pay rewards\n        for (uint i = 0; i < trainers.length; i++) {\n            if (trainers[i] != worst) _payout(payable(trainers[i]), trainerRewardWei);\n        }\n        address[] memory validators = roundValidators[id];\n        for (uint j = 0; j < validators.length; j++) {\n            _payout(payable(validators[j]), validatorRewardWei);\n        }\n\n        emit RoundFinalized(id, worst, worstAvg);\n    }\n\n    function _payout(address payable to, uint256 amount) internal {\n        if (amount == 0) return;\n        if (address(this).balance >= amount) {\n            (bool ok, ) = to.call{value: amount}(\"\");\n            require(ok, \"payout failed\");\n        }\n    }\n}\n",
  "sourcePath": "/home/salma/decentralized-ensemble/contracts/EnsembleLearning.sol",
  "compiler": {
    "name": "solc",
    "version": "0.8.20+commit.a1b79de6.Emscripten.clang"
  },
  "schemaVersion": "3.4.16",
  "updatedAt": "2025-11-07T09:17:06.716Z",
  "networkType": "ethereum",
  "devdoc": {
    "details": "Decentralized ensemble-learning coordination:  - Trainers upload model CIDs (IPFS hashes)  - Validators report accuracies  - Rewarder finalizes, selects malicious trainer (lowest avg accuracy)  - Rewards distributed to everyone except the malicious trainer",
    "kind": "dev",
    "methods": {},
    "title": "EnsembleLearning",
    "version": 1
  },
  "userdoc": {
    "kind": "user",
    "methods": {},
    "version": 1
  }
}