{
  "contractName": "Migrations",
  "abi": [
    {
      "inputs": [],
      "name": "owner",
      "outputs": [
        {
          "internalType": "address",
          "name": "",
          "type": "address"
        }
      ],
      "stateMutability": "view",
      "type": "function"
    }
  ],
  "bytecode": "0x6080604052335f806101000a81548173ffffffffffffffffffffffffffffffffffffffff021916908373ffffffffffffffffffffffffffffffffffffffff16021790555034801561004e575f80fd5b5060ef8061005b5f395ff3fe6080604052348015600e575f80fd5b50600436106026575f3560e01c80638da5cb5b14602a575b5f80fd5b60306044565b604051603b919060a2565b60405180910390f35b5f8054906101000a900473ffffffffffffffffffffffffffffffffffffffff1681565b5f73ffffffffffffffffffffffffffffffffffffffff82169050919050565b5f608e826067565b9050919050565b609c816086565b82525050565b5f60208201905060b35f8301846095565b9291505056fea264697066735822122014d8682ad9f36818f53355dcc187b956560b8ccf129dc5603d623f274b79548c64736f6c63430008140033",
  "immutableReferences": {},
  "source": "// SPDX-License-Identifier: MIT\npragma solidity ^0.8.20;\n\ncontract Migrations {\n    address public owner = msg.sender;\n}\n",
  "sourcePath": "/home/salma/decentralized-ensemble/contracts/Migrations.sol",
  "compiler": {
    "name": "solc",
    "version": "0.8.20+commit.a1b79de6.Emscripten.clang"
  },
  "schemaVersion": "3.4.16",
  "updatedAt": "2025-11-07T08:58:21.648Z",
  "devdoc": {
    "kind": "dev",
    "methods": {},
    "version": 1
  },
  "userdoc": {
    "kind": "user",
    "methods": {},
    "version": 1
  }
}